:020000040000FA
:08000000803102288731FD2F39
:100ED000873190278731230011140800873190272C
:100EE00087312300111508002F0096019701980102
:100EF00099019A019B010800603031008D008F013B
:100F000091010230930092010800283023009000E4
:100F100091018F170F1706308D00FF308E000800EB
:100F200023000F19942F952F902F11081F39031D9F
:100F30009A2F9B2F902F0800873174278731873194
:100F4000CB27873187317C278731873185278731C8
:100F50000800F000873190278731700823008C004B
:100F60002E000F1CB42FB52FB02F0F1008008731A3
:100F70009C27873187316827873174308731A927CB
:100F80008731DB308731A927873187316E27873159
:100F9000C82F803102282000960197019801FD306A
:100FA0009100FF309200FF309300E7303E00CE000A
:100FB000FF30C300FD30B800E501C401B901CF0125
:100FC000BA01C501D001FF30BB00FF30C600FF30C1
:100FD000D100FF30BC00FF30C700FF30D200083026
:100FE000E80013303D00C50014303E00A30015306A
:100FF000A40014303D00C600080020008731B72F40
:00000001FF
