:020000040000FA
:08000000803102288731FC2F3A
:100E62008731592787312300111408008731592708
:100E720087312300111508002F0096019701980170
:100E820099019A019B010800603031008D008F01A9
:100E92009101023093009201080028302300900053
:100EA20091018F170F1706308D00FF308E0008005A
:100EB20023000F195D2F5E2F592F11081F39031DB3
:100EC200632F642F592F080087313D2787318731DF
:100ED200CA27873187314527873187314E278731A6
:100EE2000800F000873159278731700823008C00F1
:100EF2002E000F1C7D2F7E2F792F0F100800F1007E
:100F02008731592787312300911587315927873136
:100F120023000C08F0007008F2008731592787314E
:100F220071080319952F982F230091169A2F2300E9
:100F320091121116720808008731652787318731AF
:100F4200312787317430873172278731DB3087311F
:100F520072278731873137278731873131278731A8
:100F6200753087317227873100308731802787318A
:100F7200F3007308F400873137278731DB307406BA
:100F8200031DC42FC52FC72F20008C14C72F8031FB
:100F920002282000960197019801FD309100FF3050
:100FA2009200FF309300E7303E00CE00FF30C300D6
:100FB200FD30B800E501C401B901CF01BA01C50194
:100FC200D001FF30BB00FF30C600FF30D100FF3040
:100FD200BC00FF30C700FF30D2000830E8001330F9
:100FE2003D00C50014303E00A3001530A4001430AB
:0E0FF2003D00C6000800F401200087319D2F4D
:00000001FF
